{
  "contractName": "SwapRouter",
  "abi": [
    {
      "anonymous": false,
      "inputs": [
        {
          "indexed": false,
          "internalType": "uint8",
          "name": "version",
          "type": "uint8"
        }
      ],
      "name": "Initialized",
      "type": "event"
    },
    {
      "anonymous": false,
      "inputs": [
        {
          "indexed": true,
          "internalType": "address",
          "name": "previousOwner",
          "type": "address"
        },
        {
          "indexed": true,
          "internalType": "address",
          "name": "newOwner",
          "type": "address"
        }
      ],
      "name": "OwnershipTransferred",
      "type": "event"
    },
    {
      "anonymous": false,
      "inputs": [
        {
          "indexed": false,
          "internalType": "string",
          "name": "aggregatorId",
          "type": "string"
        },
        {
          "indexed": true,
          "internalType": "address",
          "name": "caller",
          "type": "address"
        },
        {
          "indexed": true,
          "internalType": "address",
          "name": "sourceToken",
          "type": "address"
        },
        {
          "indexed": false,
          "internalType": "uint256",
          "name": "sourceTokenAmount",
          "type": "uint256"
        },
        {
          "indexed": true,
          "internalType": "address",
          "name": "destinationToken",
          "type": "address"
        },
        {
          "indexed": false,
          "internalType": "uint256",
          "name": "destinationTokenAmount",
          "type": "uint256"
        },
        {
          "indexed": false,
          "internalType": "address",
          "name": "feeAddress",
          "type": "address"
        },
        {
          "indexed": false,
          "internalType": "uint256",
          "name": "feeAmount",
          "type": "uint256"
        }
      ],
      "name": "Swap",
      "type": "event"
    },
    {
      "inputs": [],
      "name": "airswapWrapper",
      "outputs": [
        {
          "internalType": "address",
          "name": "",
          "type": "address"
        }
      ],
      "stateMutability": "view",
      "type": "function"
    },
    {
      "inputs": [],
      "name": "feeAddress",
      "outputs": [
        {
          "internalType": "address",
          "name": "",
          "type": "address"
        }
      ],
      "stateMutability": "view",
      "type": "function"
    },
    {
      "inputs": [],
      "name": "oneInchRouter",
      "outputs": [
        {
          "internalType": "address",
          "name": "",
          "type": "address"
        }
      ],
      "stateMutability": "view",
      "type": "function"
    },
    {
      "inputs": [],
      "name": "owner",
      "outputs": [
        {
          "internalType": "address",
          "name": "",
          "type": "address"
        }
      ],
      "stateMutability": "view",
      "type": "function"
    },
    {
      "inputs": [],
      "name": "paraswapRouter",
      "outputs": [
        {
          "internalType": "address",
          "name": "",
          "type": "address"
        }
      ],
      "stateMutability": "view",
      "type": "function"
    },
    {
      "inputs": [],
      "name": "renounceOwnership",
      "outputs": [],
      "stateMutability": "nonpayable",
      "type": "function"
    },
    {
      "inputs": [
        {
          "internalType": "address",
          "name": "newOwner",
          "type": "address"
        }
      ],
      "name": "transferOwnership",
      "outputs": [],
      "stateMutability": "nonpayable",
      "type": "function"
    },
    {
      "inputs": [],
      "name": "zeroExRouter",
      "outputs": [
        {
          "internalType": "address",
          "name": "",
          "type": "address"
        }
      ],
      "stateMutability": "view",
      "type": "function"
    },
    {
      "stateMutability": "payable",
      "type": "receive"
    },
    {
      "inputs": [],
      "name": "initialize",
      "outputs": [],
      "stateMutability": "nonpayable",
      "type": "function"
    },
    {
      "inputs": [
        {
          "internalType": "string",
          "name": "aggregatorId",
          "type": "string"
        },
        {
          "internalType": "address",
          "name": "tokenFrom",
          "type": "address"
        },
        {
          "internalType": "uint256",
          "name": "amount",
          "type": "uint256"
        },
        {
          "internalType": "bytes",
          "name": "data",
          "type": "bytes"
        }
      ],
      "name": "swap",
      "outputs": [],
      "stateMutability": "payable",
      "type": "function"
    },
    {
      "inputs": [
        {
          "internalType": "address",
          "name": "_feeAddress",
          "type": "address"
        }
      ],
      "name": "updateFeeAddress",
      "outputs": [],
      "stateMutability": "nonpayable",
      "type": "function"
    },
    {
      "inputs": [
        {
          "internalType": "address",
          "name": "_paraswapRouter",
          "type": "address"
        }
      ],
      "name": "updateParaswapRouter",
      "outputs": [],
      "stateMutability": "nonpayable",
      "type": "function"
    },
    {
      "inputs": [
        {
          "internalType": "address",
          "name": "_airswapWrapper",
          "type": "address"
        }
      ],
      "name": "updateAirswapWrapper",
      "outputs": [],
      "stateMutability": "nonpayable",
      "type": "function"
    },
    {
      "inputs": [
        {
          "internalType": "address",
          "name": "_zeroExRouter",
          "type": "address"
        }
      ],
      "name": "updateZeroExRouter",
      "outputs": [],
      "stateMutability": "nonpayable",
      "type": "function"
    },
    {
      "inputs": [
        {
          "internalType": "address",
          "name": "_oneInchRouter",
          "type": "address"
        }
      ],
      "name": "updateOneInchRouter",
      "outputs": [],
      "stateMutability": "nonpayable",
      "type": "function"
    }
  ],
  "bytecode": "0x608060405234801561001057600080fd5b50612fe8806100206000396000f3fe6080604052600436106100ec5760003560e01c8063a2017d511161008a578063bf4aa56b11610059578063bf4aa56b14610294578063c4d9563f146102bd578063f2fde38b146102e8578063f890682b14610311576100f3565b8063a2017d51146101ec578063ac3af20814610217578063b974d07f14610242578063bbcaac381461026b576100f3565b80637d3a48a1116100c65780637d3a48a1146101565780638129fc1c1461017f5780638cc68105146101965780638da5cb5b146101c1576100f3565b806341275358146100f85780635f57552914610123578063715018a61461013f576100f3565b366100f357005b600080fd5b34801561010457600080fd5b5061010d61033a565b60405161011a91906120ac565b60405180910390f35b61013d60048036038101906101389190612324565b610360565b005b34801561014b57600080fd5b50610154611062565b005b34801561016257600080fd5b5061017d600480360381019061017891906123c3565b611076565b005b34801561018b57600080fd5b50610194611132565b005b3480156101a257600080fd5b506101ab611421565b6040516101b891906120ac565b60405180910390f35b3480156101cd57600080fd5b506101d6611447565b6040516101e391906120ac565b60405180910390f35b3480156101f857600080fd5b50610201611471565b60405161020e91906120ac565b60405180910390f35b34801561022357600080fd5b5061022c611497565b60405161023991906120ac565b60405180910390f35b34801561024e57600080fd5b50610269600480360381019061026491906123c3565b6114bd565b005b34801561027757600080fd5b50610292600480360381019061028d91906123c3565b611579565b005b3480156102a057600080fd5b506102bb60048036038101906102b691906123c3565b611635565b005b3480156102c957600080fd5b506102d26116f1565b6040516102df91906120ac565b60405180910390f35b3480156102f457600080fd5b5061030f600480360381019061030a91906123c3565b611717565b005b34801561031d57600080fd5b50610338600480360381019061033391906123c3565b61179b565b005b609b60009054906101000a900473ffffffffffffffffffffffffffffffffffffffff1681565b610368611857565b6000806000806000606080600060408901519550606089015194506080890151975060a089015196506000890151915060e08901600081019250506040516020016103b290612447565b604051602081830303815290604052805190602001208c6040516020016103d991906124cb565b60405160208183030381529060405280519060200120141561053357609960009054906101000a900473ffffffffffffffffffffffffffffffffffffffff169050600073ffffffffffffffffffffffffffffffffffffffff168b73ffffffffffffffffffffffffffffffffffffffff161461052e5760008b73ffffffffffffffffffffffffffffffffffffffff1663dd62ed3e30846040518363ffffffff1660e01b815260040161048b9291906124e2565b60206040518083038186803b1580156104a357600080fd5b505afa1580156104b7573d6000803e3d6000fd5b505050506040513d601f19601f820116820180604052508101906104db9190612520565b141561052d5761052c817fffffffffffffffffffffffffffffffffffffffffffffffffffffffffffffffff8d73ffffffffffffffffffffffffffffffffffffffff166118a79092919063ffffffff16565b5b5b610a65565b60405160200161054290612599565b604051602081830303815290604052805190602001208c60405160200161056991906124cb565b6040516020818303038152906040528051906020012014156106c357609a60009054906101000a900473ffffffffffffffffffffffffffffffffffffffff169050600073ffffffffffffffffffffffffffffffffffffffff168b73ffffffffffffffffffffffffffffffffffffffff16146106be5760008b73ffffffffffffffffffffffffffffffffffffffff1663dd62ed3e30846040518363ffffffff1660e01b815260040161061b9291906124e2565b60206040518083038186803b15801561063357600080fd5b505afa158015610647573d6000803e3d6000fd5b505050506040513d601f19601f8201168201806040525081019061066b9190612520565b14156106bd576106bc817fffffffffffffffffffffffffffffffffffffffffffffffffffffffffffffffff8d73ffffffffffffffffffffffffffffffffffffffff166118a79092919063ffffffff16565b5b5b610a64565b6040516020016106d2906125fa565b604051602081830303815290604052805190602001208c6040516020016106f991906124cb565b60405160208183030381529060405280519060200120141561085357609860009054906101000a900473ffffffffffffffffffffffffffffffffffffffff169050600073ffffffffffffffffffffffffffffffffffffffff168b73ffffffffffffffffffffffffffffffffffffffff161461084e5760008b73ffffffffffffffffffffffffffffffffffffffff1663dd62ed3e30846040518363ffffffff1660e01b81526004016107ab9291906124e2565b60206040518083038186803b1580156107c357600080fd5b505afa1580156107d7573d6000803e3d6000fd5b505050506040513d601f19601f820116820180604052508101906107fb9190612520565b141561084d5761084c817fffffffffffffffffffffffffffffffffffffffffffffffffffffffffffffffff8d73ffffffffffffffffffffffffffffffffffffffff166118a79092919063ffffffff16565b5b5b610a63565b6040516020016108629061265b565b604051602081830303815290604052805190602001208c60405160200161088991906124cb565b604051602081830303815290604052805190602001201415610a6257609760009054906101000a900473ffffffffffffffffffffffffffffffffffffffff169050600073ffffffffffffffffffffffffffffffffffffffff168b73ffffffffffffffffffffffffffffffffffffffff1614610a615760008173ffffffffffffffffffffffffffffffffffffffff1663d2c4b5986040518163ffffffff1660e01b815260040160206040518083038186803b15801561094657600080fd5b505afa15801561095a573d6000803e3d6000fd5b505050506040513d601f19601f8201168201806040525081019061097e9190612685565b905060008c73ffffffffffffffffffffffffffffffffffffffff1663dd62ed3e30846040518363ffffffff1660e01b81526004016109bd9291906124e2565b60206040518083038186803b1580156109d557600080fd5b505afa1580156109e9573d6000803e3d6000fd5b505050506040513d601f19601f82011682018060405250810190610a0d9190612520565b1415610a5f57610a5e817fffffffffffffffffffffffffffffffffffffffffffffffffffffffffffffffff8e73ffffffffffffffffffffffffffffffffffffffff166118a79092919063ffffffff16565b5b505b5b5b5b5b600073ffffffffffffffffffffffffffffffffffffffff168b73ffffffffffffffffffffffffffffffffffffffff1614610b4257610acd610aa4611a05565b308c8e73ffffffffffffffffffffffffffffffffffffffff16611a0d909392919063ffffffff16565b8073ffffffffffffffffffffffffffffffffffffffff1682604051610af291906126f9565b6000604051808303816000865af19150503d8060008114610b2f576040519150601f19603f3d011682016040523d82523d6000602084013e610b34565b606091505b508094508195505050610bb4565b8073ffffffffffffffffffffffffffffffffffffffff168583604051610b6891906126f9565b60006040518083038185875af1925050503d8060008114610ba5576040519150601f19603f3d011682016040523d82523d6000602084013e610baa565b606091505b5080945081955050505b83610bf4576040517f08c379a0000000000000000000000000000000000000000000000000000000008152600401610beb9061276d565b60405180910390fd5b89851015610d5557600073ffffffffffffffffffffffffffffffffffffffff168b73ffffffffffffffffffffffffffffffffffffffff1614610c8257610c7d609b60009054906101000a900473ffffffffffffffffffffffffffffffffffffffff16888d73ffffffffffffffffffffffffffffffffffffffff16611a969092919063ffffffff16565b610d54565b609b60009054906101000a900473ffffffffffffffffffffffffffffffffffffffff1673ffffffffffffffffffffffffffffffffffffffff1687604051610cc8906127b3565b60006040518083038185875af1925050503d8060008114610d05576040519150601f19603f3d011682016040523d82523d6000602084013e610d0a565b606091505b50809450819550505083610d53576040517f08c379a0000000000000000000000000000000000000000000000000000000008152600401610d4a90612814565b60405180910390fd5b5b5b600073ffffffffffffffffffffffffffffffffffffffff168673ffffffffffffffffffffffffffffffffffffffff1614610edc578573ffffffffffffffffffffffffffffffffffffffff166370a08231306040518263ffffffff1660e01b8152600401610dc291906120ac565b60206040518083038186803b158015610dda57600080fd5b505afa158015610dee573d6000803e3d6000fd5b505050506040513d601f19601f82011682018060405250810190610e129190612520565b881115610ea5578573ffffffffffffffffffffffffffffffffffffffff166370a08231306040518263ffffffff1660e01b8152600401610e5291906120ac565b60206040518083038186803b158015610e6a57600080fd5b505afa158015610e7e573d6000803e3d6000fd5b505050506040513d601f19601f82011682018060405250810190610ea29190612520565b97505b610ed7610eb0611a05565b898873ffffffffffffffffffffffffffffffffffffffff16611a969092919063ffffffff16565b610f9f565b47881115610ee8574797505b610ef0611a05565b73ffffffffffffffffffffffffffffffffffffffff1688604051610f13906127b3565b60006040518083038185875af1925050503d8060008114610f50576040519150601f19603f3d011682016040523d82523d6000602084013e610f55565b606091505b50809450819550505083610f9e576040517f08c379a0000000000000000000000000000000000000000000000000000000008152600401610f9590612814565b60405180910390fd5b5b8573ffffffffffffffffffffffffffffffffffffffff168b73ffffffffffffffffffffffffffffffffffffffff16610fd5611a05565b73ffffffffffffffffffffffffffffffffffffffff167f69e9643ecc4f2eab6881057456452ad61f92f91f013eee3ee99c62a9eb45d9f38f8e8d609b60009054906101000a900473ffffffffffffffffffffffffffffffffffffffff168e60405161104495949392919061287c565b60405180910390a4505050505050505061105c611b1c565b50505050565b61106a611b26565b6110746000611ba4565b565b61107e611b26565b600073ffffffffffffffffffffffffffffffffffffffff168173ffffffffffffffffffffffffffffffffffffffff1614156110ee576040517f08c379a00000000000000000000000000000000000000000000000000000000081526004016110e590612922565b60405180910390fd5b80609960006101000a81548173ffffffffffffffffffffffffffffffffffffffff021916908373ffffffffffffffffffffffffffffffffffffffff16021790555050565b60008060019054906101000a900460ff161590508080156111635750600160008054906101000a900460ff1660ff16105b80611190575061117230611c6a565b15801561118f5750600160008054906101000a900460ff1660ff16145b5b6111cf576040517f08c379a00000000000000000000000000000000000000000000000000000000081526004016111c6906129b4565b60405180910390fd5b60016000806101000a81548160ff021916908360ff160217905550801561120c576001600060016101000a81548160ff0219169083151502179055505b73def171fe48cf0115b1d80b88dc8eab59176fee57609760006101000a81548173ffffffffffffffffffffffffffffffffffffffff021916908373ffffffffffffffffffffffffffffffffffffffff16021790555073c32a3c867abad28d977e1724f92d9684ff3d2976609860006101000a81548173ffffffffffffffffffffffffffffffffffffffff021916908373ffffffffffffffffffffffffffffffffffffffff16021790555073def1c0ded9bec7f1a1670819833240f027b25eff609960006101000a81548173ffffffffffffffffffffffffffffffffffffffff021916908373ffffffffffffffffffffffffffffffffffffffff160217905550731111111254fb6c44bac0bed2854e76f90643097d609a60006101000a81548173ffffffffffffffffffffffffffffffffffffffff021916908373ffffffffffffffffffffffffffffffffffffffff160217905550735b3770699868c6a57cfa0b1d76e5b8d26f0e20da609b60006101000a81548173ffffffffffffffffffffffffffffffffffffffff021916908373ffffffffffffffffffffffffffffffffffffffff1602179055506113bd611c8d565b6113c5611ce6565b801561141e5760008060016101000a81548160ff0219169083151502179055507f7f26b83ff96e1f2b6a682f133852f6798a09c465da95921460cefb384740249860016040516114159190612a26565b60405180910390a15b50565b609960009054906101000a900473ffffffffffffffffffffffffffffffffffffffff1681565b6000603360009054906101000a900473ffffffffffffffffffffffffffffffffffffffff16905090565b609760009054906101000a900473ffffffffffffffffffffffffffffffffffffffff1681565b609a60009054906101000a900473ffffffffffffffffffffffffffffffffffffffff1681565b6114c5611b26565b600073ffffffffffffffffffffffffffffffffffffffff168173ffffffffffffffffffffffffffffffffffffffff161415611535576040517f08c379a000000000000000000000000000000000000000000000000000000000815260040161152c90612922565b60405180910390fd5b80609860006101000a81548173ffffffffffffffffffffffffffffffffffffffff021916908373ffffffffffffffffffffffffffffffffffffffff16021790555050565b611581611b26565b600073ffffffffffffffffffffffffffffffffffffffff168173ffffffffffffffffffffffffffffffffffffffff1614156115f1576040517f08c379a00000000000000000000000000000000000000000000000000000000081526004016115e890612a8d565b60405180910390fd5b80609b60006101000a81548173ffffffffffffffffffffffffffffffffffffffff021916908373ffffffffffffffffffffffffffffffffffffffff16021790555050565b61163d611b26565b600073ffffffffffffffffffffffffffffffffffffffff168173ffffffffffffffffffffffffffffffffffffffff1614156116ad576040517f08c379a00000000000000000000000000000000000000000000000000000000081526004016116a490612922565b60405180910390fd5b80609a60006101000a81548173ffffffffffffffffffffffffffffffffffffffff021916908373ffffffffffffffffffffffffffffffffffffffff16021790555050565b609860009054906101000a900473ffffffffffffffffffffffffffffffffffffffff1681565b61171f611b26565b600073ffffffffffffffffffffffffffffffffffffffff168173ffffffffffffffffffffffffffffffffffffffff16141561178f576040517f08c379a000000000000000000000000000000000000000000000000000000000815260040161178690612b1f565b60405180910390fd5b61179881611ba4565b50565b6117a3611b26565b600073ffffffffffffffffffffffffffffffffffffffff168173ffffffffffffffffffffffffffffffffffffffff161415611813576040517f08c379a000000000000000000000000000000000000000000000000000000000815260040161180a90612922565b60405180910390fd5b80609760006101000a81548173ffffffffffffffffffffffffffffffffffffffff021916908373ffffffffffffffffffffffffffffffffffffffff16021790555050565b6002606554141561189d576040517f08c379a000000000000000000000000000000000000000000000000000000000815260040161189490612b8b565b60405180910390fd5b6002606581905550565b6000811480611940575060008373ffffffffffffffffffffffffffffffffffffffff1663dd62ed3e30856040518363ffffffff1660e01b81526004016118ee9291906124e2565b60206040518083038186803b15801561190657600080fd5b505afa15801561191a573d6000803e3d6000fd5b505050506040513d601f19601f8201168201806040525081019061193e9190612520565b145b61197f576040517f08c379a000000000000000000000000000000000000000000000000000000000815260040161197690612c1d565b60405180910390fd5b611a008363095ea7b360e01b848460405160240161199e929190612c3d565b604051602081830303815290604052907bffffffffffffffffffffffffffffffffffffffffffffffffffffffff19166020820180517bffffffffffffffffffffffffffffffffffffffffffffffffffffffff8381831617835250505050611d3f565b505050565b600033905090565b611a90846323b872dd60e01b858585604051602401611a2e93929190612c66565b604051602081830303815290604052907bffffffffffffffffffffffffffffffffffffffffffffffffffffffff19166020820180517bffffffffffffffffffffffffffffffffffffffffffffffffffffffff8381831617835250505050611d3f565b50505050565b611b178363a9059cbb60e01b8484604051602401611ab5929190612c3d565b604051602081830303815290604052907bffffffffffffffffffffffffffffffffffffffffffffffffffffffff19166020820180517bffffffffffffffffffffffffffffffffffffffffffffffffffffffff8381831617835250505050611d3f565b505050565b6001606581905550565b611b2e611a05565b73ffffffffffffffffffffffffffffffffffffffff16611b4c611447565b73ffffffffffffffffffffffffffffffffffffffff1614611ba2576040517f08c379a0000000000000000000000000000000000000000000000000000000008152600401611b9990612ce9565b60405180910390fd5b565b6000603360009054906101000a900473ffffffffffffffffffffffffffffffffffffffff16905081603360006101000a81548173ffffffffffffffffffffffffffffffffffffffff021916908373ffffffffffffffffffffffffffffffffffffffff1602179055508173ffffffffffffffffffffffffffffffffffffffff168173ffffffffffffffffffffffffffffffffffffffff167f8be0079c531659141344cd1fd0a4f28419497f9722a3daafe3b4186f6b6457e060405160405180910390a35050565b6000808273ffffffffffffffffffffffffffffffffffffffff163b119050919050565b600060019054906101000a900460ff16611cdc576040517f08c379a0000000000000000000000000000000000000000000000000000000008152600401611cd390612d7b565b60405180910390fd5b611ce4611e06565b565b600060019054906101000a900460ff16611d35576040517f08c379a0000000000000000000000000000000000000000000000000000000008152600401611d2c90612d7b565b60405180910390fd5b611d3d611e67565b565b6000611da1826040518060400160405280602081526020017f5361666545524332303a206c6f772d6c6576656c2063616c6c206661696c65648152508573ffffffffffffffffffffffffffffffffffffffff16611ec09092919063ffffffff16565b9050600081511115611e015780806020019051810190611dc19190612dd3565b611e00576040517f08c379a0000000000000000000000000000000000000000000000000000000008152600401611df790612e72565b60405180910390fd5b5b505050565b600060019054906101000a900460ff16611e55576040517f08c379a0000000000000000000000000000000000000000000000000000000008152600401611e4c90612d7b565b60405180910390fd5b611e65611e60611a05565b611ba4565b565b600060019054906101000a900460ff16611eb6576040517f08c379a0000000000000000000000000000000000000000000000000000000008152600401611ead90612d7b565b60405180910390fd5b6001606581905550565b6060611ecf8484600085611ed8565b90509392505050565b606082471015611f1d576040517f08c379a0000000000000000000000000000000000000000000000000000000008152600401611f1490612f04565b60405180910390fd5b6000808673ffffffffffffffffffffffffffffffffffffffff168587604051611f4691906126f9565b60006040518083038185875af1925050503d8060008114611f83576040519150601f19603f3d011682016040523d82523d6000602084013e611f88565b606091505b5091509150611f9987838387611fa5565b92505050949350505050565b606083156120085760008351141561200057611fc085611c6a565b611fff576040517f08c379a0000000000000000000000000000000000000000000000000000000008152600401611ff690612f70565b60405180910390fd5b5b829050612013565b612012838361201b565b5b949350505050565b60008251111561202e5781518083602001fd5b806040517f08c379a00000000000000000000000000000000000000000000000000000000081526004016120629190612f90565b60405180910390fd5b600073ffffffffffffffffffffffffffffffffffffffff82169050919050565b60006120968261206b565b9050919050565b6120a68161208b565b82525050565b60006020820190506120c1600083018461209d565b92915050565b6000604051905090565b600080fd5b600080fd5b600080fd5b600080fd5b6000601f19601f8301169050919050565b7f4e487b7100000000000000000000000000000000000000000000000000000000600052604160045260246000fd5b61212e826120e5565b810181811067ffffffffffffffff8211171561214d5761214c6120f6565b5b80604052505050565b60006121606120c7565b905061216c8282612125565b919050565b600067ffffffffffffffff82111561218c5761218b6120f6565b5b612195826120e5565b9050602081019050919050565b82818337600083830152505050565b60006121c46121bf84612171565b612156565b9050828152602081018484840111156121e0576121df6120e0565b5b6121eb8482856121a2565b509392505050565b600082601f830112612208576122076120db565b5b81356122188482602086016121b1565b91505092915050565b61222a8161208b565b811461223557600080fd5b50565b60008135905061224781612221565b92915050565b6000819050919050565b6122608161224d565b811461226b57600080fd5b50565b60008135905061227d81612257565b92915050565b600067ffffffffffffffff82111561229e5761229d6120f6565b5b6122a7826120e5565b9050602081019050919050565b60006122c76122c284612283565b612156565b9050828152602081018484840111156122e3576122e26120e0565b5b6122ee8482856121a2565b509392505050565b600082601f83011261230b5761230a6120db565b5b813561231b8482602086016122b4565b91505092915050565b6000806000806080858703121561233e5761233d6120d1565b5b600085013567ffffffffffffffff81111561235c5761235b6120d6565b5b612368878288016121f3565b945050602061237987828801612238565b935050604061238a8782880161226e565b925050606085013567ffffffffffffffff8111156123ab576123aa6120d6565b5b6123b7878288016122f6565b91505092959194509250565b6000602082840312156123d9576123d86120d1565b5b60006123e784828501612238565b91505092915050565b600081905092915050565b7f307846656544796e616d69630000000000000000000000000000000000000000600082015250565b6000612431600c836123f0565b915061243c826123fb565b600c82019050919050565b600061245282612424565b9150819050919050565b600081519050919050565b60005b8381101561248557808201518184015260208101905061246a565b83811115612494576000848401525b50505050565b60006124a58261245c565b6124af81856123f0565b93506124bf818560208601612467565b80840191505092915050565b60006124d7828461249a565b915081905092915050565b60006040820190506124f7600083018561209d565b612504602083018461209d565b9392505050565b60008151905061251a81612257565b92915050565b600060208284031215612536576125356120d1565b5b60006125448482850161250b565b91505092915050565b7f6f6e65496e6368563446656544796e616d696300000000000000000000000000600082015250565b60006125836013836123f0565b915061258e8261254d565b601382019050919050565b60006125a482612576565b9150819050919050565b7f61697273776170563346656544796e616d696300000000000000000000000000600082015250565b60006125e46013836123f0565b91506125ef826125ae565b601382019050919050565b6000612605826125d7565b9150819050919050565b7f7061726173776170563546656544796e616d6963000000000000000000000000600082015250565b60006126456014836123f0565b91506126508261260f565b601482019050919050565b600061266682612638565b9150819050919050565b60008151905061267f81612221565b92915050565b60006020828403121561269b5761269a6120d1565b5b60006126a984828501612670565b91505092915050565b600081519050919050565b600081905092915050565b60006126d3826126b2565b6126dd81856126bd565b93506126ed818560208601612467565b80840191505092915050565b600061270582846126c8565b915081905092915050565b600082825260208201905092915050565b7f4661696c656420746f2073776170000000000000000000000000000000000000600082015250565b6000612757600e83612710565b915061276282612721565b602082019050919050565b600060208201905081810360008301526127868161274a565b9050919050565b50565b600061279d6000836126bd565b91506127a88261278d565b600082019050919050565b60006127be82612790565b9150819050919050565b7f4661696c656420746f2073656e6420424e420000000000000000000000000000600082015250565b60006127fe601283612710565b9150612809826127c8565b602082019050919050565b6000602082019050818103600083015261282d816127f1565b9050919050565b600061283f8261245c565b6128498185612710565b9350612859818560208601612467565b612862816120e5565b840191505092915050565b6128768161224d565b82525050565b600060a08201905081810360008301526128968188612834565b90506128a5602083018761286d565b6128b2604083018661286d565b6128bf606083018561209d565b6128cc608083018461286d565b9695505050505050565b7f494e56414c49445f414444524553530000000000000000000000000000000000600082015250565b600061290c600f83612710565b9150612917826128d6565b602082019050919050565b6000602082019050818103600083015261293b816128ff565b9050919050565b7f496e697469616c697a61626c653a20636f6e747261637420697320616c72656160008201527f647920696e697469616c697a6564000000000000000000000000000000000000602082015250565b600061299e602e83612710565b91506129a982612942565b604082019050919050565b600060208201905081810360008301526129cd81612991565b9050919050565b6000819050919050565b600060ff82169050919050565b6000819050919050565b6000612a10612a0b612a06846129d4565b6129eb565b6129de565b9050919050565b612a20816129f5565b82525050565b6000602082019050612a3b6000830184612a17565b92915050565b7f494e56414c49445f4645455f57414c4c45540000000000000000000000000000600082015250565b6000612a77601283612710565b9150612a8282612a41565b602082019050919050565b60006020820190508181036000830152612aa681612a6a565b9050919050565b7f4f776e61626c653a206e6577206f776e657220697320746865207a65726f206160008201527f6464726573730000000000000000000000000000000000000000000000000000602082015250565b6000612b09602683612710565b9150612b1482612aad565b604082019050919050565b60006020820190508181036000830152612b3881612afc565b9050919050565b7f5265656e7472616e637947756172643a207265656e7472616e742063616c6c00600082015250565b6000612b75601f83612710565b9150612b8082612b3f565b602082019050919050565b60006020820190508181036000830152612ba481612b68565b9050919050565b7f5361666545524332303a20617070726f76652066726f6d206e6f6e2d7a65726f60008201527f20746f206e6f6e2d7a65726f20616c6c6f77616e636500000000000000000000602082015250565b6000612c07603683612710565b9150612c1282612bab565b604082019050919050565b60006020820190508181036000830152612c3681612bfa565b9050919050565b6000604082019050612c52600083018561209d565b612c5f602083018461286d565b9392505050565b6000606082019050612c7b600083018661209d565b612c88602083018561209d565b612c95604083018461286d565b949350505050565b7f4f776e61626c653a2063616c6c6572206973206e6f7420746865206f776e6572600082015250565b6000612cd3602083612710565b9150612cde82612c9d565b602082019050919050565b60006020820190508181036000830152612d0281612cc6565b9050919050565b7f496e697469616c697a61626c653a20636f6e7472616374206973206e6f74206960008201527f6e697469616c697a696e67000000000000000000000000000000000000000000602082015250565b6000612d65602b83612710565b9150612d7082612d09565b604082019050919050565b60006020820190508181036000830152612d9481612d58565b9050919050565b60008115159050919050565b612db081612d9b565b8114612dbb57600080fd5b50565b600081519050612dcd81612da7565b92915050565b600060208284031215612de957612de86120d1565b5b6000612df784828501612dbe565b91505092915050565b7f5361666545524332303a204552433230206f7065726174696f6e20646964206e60008201527f6f74207375636365656400000000000000000000000000000000000000000000602082015250565b6000612e5c602a83612710565b9150612e6782612e00565b604082019050919050565b60006020820190508181036000830152612e8b81612e4f565b9050919050565b7f416464726573733a20696e73756666696369656e742062616c616e636520666f60008201527f722063616c6c0000000000000000000000000000000000000000000000000000602082015250565b6000612eee602683612710565b9150612ef982612e92565b604082019050919050565b60006020820190508181036000830152612f1d81612ee1565b9050919050565b7f416464726573733a2063616c6c20746f206e6f6e2d636f6e7472616374000000600082015250565b6000612f5a601d83612710565b9150612f6582612f24565b602082019050919050565b60006020820190508181036000830152612f8981612f4d565b9050919050565b60006020820190508181036000830152612faa8184612834565b90509291505056fea26469706673582212201e817498c7d0bc939b8f2632046b828c5650613c81f95dddb259c36a1dbd640b64736f6c63430008090033",
  "immutableReferences": {},
  "source": "// SPDX-License-Identifier: MIT\n\npragma solidity 0.8.9;\n\nimport \"@openzeppelin/contracts-upgradeable/token/ERC20/IERC20Upgradeable.sol\";\nimport \"@openzeppelin/contracts-upgradeable/token/ERC20/utils/SafeERC20Upgradeable.sol\";\nimport \"@openzeppelin/contracts-upgradeable/access/OwnableUpgradeable.sol\";\nimport \"@openzeppelin/contracts-upgradeable/utils/AddressUpgradeable.sol\";\nimport \"@openzeppelin/contracts-upgradeable/security/ReentrancyGuardUpgradeable.sol\";\n\ninterface IParaswapRouter {\n    /**\n    * @dev Returns address for spender\n    */\n    function getTokenTransferProxy() external view returns (address);\n}\n\ncontract SwapRouter is OwnableUpgradeable, ReentrancyGuardUpgradeable {\n\n    using AddressUpgradeable for address payable; \n    using SafeERC20Upgradeable for IERC20Upgradeable;\n\n    address public paraswapRouter;\n    address public airswapWrapper;\n    address public zeroExRouter;\n    address public oneInchRouter;\n    address public feeAddress;\n    \n    event Swap(string aggregatorId, address indexed caller, address indexed sourceToken, uint256 sourceTokenAmount, address indexed destinationToken, uint256 destinationTokenAmount, address feeAddress, uint256 feeAmount);\n\n    function initialize() public initializer{\n        paraswapRouter = address(0xDEF171Fe48CF0115B1d80b88dc8eAB59176FEe57);\n        airswapWrapper = address(0xC32a3c867aBAd28d977e1724f92D9684fF3d2976);\n        zeroExRouter = address(0xDef1C0ded9bec7F1a1670819833240f027b25EfF);\n        oneInchRouter = address(0x1111111254fb6c44bAC0beD2854e76F90643097d);\n        feeAddress = address(0x5b3770699868c6A57cFA0B1d76e5b8d26f0e20DA);\n        __Ownable_init();\n        __ReentrancyGuard_init();\n    }\n\n    receive() external payable {}\n\n    /**\n    * @notice Performs a swap\n    * @param aggregatorId Selected Dex for swapping\n    * @param tokenFrom Address of source token to be swapped\n    * @param amount Amount of source token\n    * @param data Encoded data for swapping\n    */ \n\n    function swap(string memory aggregatorId, address tokenFrom, uint256 amount, bytes memory data) external payable nonReentrant {\n\n        uint256 receivedAmount;\n        uint256 feeAmount;\n        address destinationToken;\n        uint256 swappingTokenAmount;\n        bool success;\n        bytes memory result;\n        bytes memory swapData;\n        address swapRouterAddress;\n\n        assembly {\n            destinationToken := mload(add(data, 0x40))\n            swappingTokenAmount := mload(add(data, 0x60))\n            receivedAmount := mload(add(data, 0x80))\n            feeAmount := mload(add(data, 0xA0))\n            swapData := mload(add(data, 0x0))\n            let cc := add(data, 0xE0)\n            swapData := add(cc, 0x0)\n        }\n\n        if(keccak256(abi.encodePacked((aggregatorId))) == keccak256(abi.encodePacked((\"0xFeeDynamic\")))){\n            swapRouterAddress = zeroExRouter;\n            if(tokenFrom != address(0)){\n                if(IERC20Upgradeable(tokenFrom).allowance(address(this), swapRouterAddress) == 0){\n                    IERC20Upgradeable(tokenFrom).safeApprove(swapRouterAddress, type(uint256).max);\n                }\n            }\n        }\n        else if (keccak256(abi.encodePacked((aggregatorId))) == keccak256(abi.encodePacked((\"oneInchV4FeeDynamic\")))){\n            swapRouterAddress = oneInchRouter;\n            if(tokenFrom != address(0)){\n                if(IERC20Upgradeable(tokenFrom).allowance(address(this), swapRouterAddress) == 0){\n                    IERC20Upgradeable(tokenFrom).safeApprove(swapRouterAddress, type(uint256).max);\n                }\n            }\n        }\n        else if (keccak256(abi.encodePacked((aggregatorId))) == keccak256(abi.encodePacked((\"airswapV3FeeDynamic\")))){\n            swapRouterAddress = airswapWrapper;\n            if(tokenFrom != address(0)){\n                if(IERC20Upgradeable(tokenFrom).allowance(address(this), swapRouterAddress) == 0){\n                    IERC20Upgradeable(tokenFrom).safeApprove(swapRouterAddress, type(uint256).max);\n                }\n            }\n        }\n        else if (keccak256(abi.encodePacked((aggregatorId))) == keccak256(abi.encodePacked((\"paraswapV5FeeDynamic\")))){\n            swapRouterAddress = paraswapRouter;\n            if(tokenFrom != address(0)){\n                address proxy = IParaswapRouter(swapRouterAddress).getTokenTransferProxy();\n                if(IERC20Upgradeable(tokenFrom).allowance(address(this), proxy) == 0){\n                    IERC20Upgradeable(tokenFrom).safeApprove(proxy, type(uint256).max);\n                }\n            }\n        }\n        if(tokenFrom != address(0)){\n            IERC20Upgradeable(tokenFrom).safeTransferFrom(_msgSender(), address(this), amount);\n            (success, result) = swapRouterAddress.call(swapData);\n        }\n        else{\n            (success, result) = swapRouterAddress.call{value:swappingTokenAmount}(swapData);\n        }\n        \n        require(success, \"Failed to swap\");\n\n        if(swappingTokenAmount < amount){\n            if(tokenFrom != address(0)){\n                IERC20Upgradeable(tokenFrom).safeTransfer(feeAddress, feeAmount);\n            }\n            else{\n                (success,result) = payable(feeAddress).call{value: feeAmount}(\"\");\n                require(success, \"Failed to send BNB\");\n            }\n        }\n        if(destinationToken != address(0)){\n            if(receivedAmount > IERC20Upgradeable(destinationToken).balanceOf(address(this))){\n                receivedAmount = IERC20Upgradeable(destinationToken).balanceOf(address(this));\n            }\n            IERC20Upgradeable(destinationToken).safeTransfer(_msgSender(), receivedAmount);\n        }\n        else{\n            if(receivedAmount > address(this).balance){\n                receivedAmount = address(this).balance;\n            }\n            (success,result) = payable(_msgSender()).call{value: receivedAmount}(\"\");\n            require(success, \"Failed to send BNB\");\n        }\n\n        emit Swap(aggregatorId, _msgSender(), tokenFrom, amount, destinationToken, receivedAmount, feeAddress, feeAmount);\n    }\n\n    /**\n    * @notice Update feeAddress\n    * @param _feeAddress New feeAddress\n    */\n\n    function updateFeeAddress(address _feeAddress) external onlyOwner {\n        require(_feeAddress != address(0), \"INVALID_FEE_WALLET\");\n        feeAddress = _feeAddress;\n    }\n\n    /**\n    * @notice Update paraswapRouter\n    * @param _paraswapRouter New paraswapRouter\n    */\n\n    function updateParaswapRouter(address _paraswapRouter) external onlyOwner {\n        require(_paraswapRouter != address(0), \"INVALID_ADDRESS\");\n        paraswapRouter = _paraswapRouter;\n    }\n\n    /**\n    * @notice Update airswapWrapper\n    * @param _airswapWrapper New airswapWrapper\n    */\n\n    function updateAirswapWrapper(address _airswapWrapper) external onlyOwner {\n        require(_airswapWrapper != address(0), \"INVALID_ADDRESS\");\n        airswapWrapper = _airswapWrapper;\n    }\n\n    /**\n    * @notice Update zeroExRouter\n    * @param _zeroExRouter New zeroExRouter\n    */\n\n    function updateZeroExRouter(address _zeroExRouter) external onlyOwner {\n        require(_zeroExRouter != address(0), \"INVALID_ADDRESS\");\n        zeroExRouter = _zeroExRouter;\n    }\n\n    /**\n    * @notice Update oneInchRouter\n    * @param _oneInchRouter New oneInchRouter\n    */\n\n    function updateOneInchRouter(address _oneInchRouter) external onlyOwner {\n        require(_oneInchRouter != address(0), \"INVALID_ADDRESS\");\n        oneInchRouter = _oneInchRouter;\n    }\n}",
  "sourcePath": "/Applications/XAMPP/xamppfiles/htdocs/CODE/WORK/2023/XEND/MadWalletDEXAggregator/contracts/SwapRouter.sol",
  "compiler": {
    "name": "solc",
    "version": "0.8.9+commit.e5eed63a.Emscripten.clang"
  },
  "schemaVersion": "3.4.11",
  "updatedAt": "2023-02-10T12:16:47.000Z",
  "devdoc": {
    "kind": "dev",
    "methods": {
      "owner()": {
        "details": "Returns the address of the current owner."
      },
      "renounceOwnership()": {
        "details": "Leaves the contract without owner. It will not be possible to call `onlyOwner` functions anymore. Can only be called by the current owner. NOTE: Renouncing ownership will leave the contract without an owner, thereby removing any functionality that is only available to the owner."
      },
      "swap(string,address,uint256,bytes)": {
        "params": {
          "aggregatorId": "Selected Dex for swapping",
          "amount": "Amount of source token",
          "data": "Encoded data for swapping",
          "tokenFrom": "Address of source token to be swapped"
        }
      },
      "transferOwnership(address)": {
        "details": "Transfers ownership of the contract to a new account (`newOwner`). Can only be called by the current owner."
      },
      "updateAirswapWrapper(address)": {
        "params": {
          "_airswapWrapper": "New airswapWrapper"
        }
      },
      "updateFeeAddress(address)": {
        "params": {
          "_feeAddress": "New feeAddress"
        }
      },
      "updateOneInchRouter(address)": {
        "params": {
          "_oneInchRouter": "New oneInchRouter"
        }
      },
      "updateParaswapRouter(address)": {
        "params": {
          "_paraswapRouter": "New paraswapRouter"
        }
      },
      "updateZeroExRouter(address)": {
        "params": {
          "_zeroExRouter": "New zeroExRouter"
        }
      }
    },
    "version": 1
  },
  "userdoc": {
    "kind": "user",
    "methods": {
      "swap(string,address,uint256,bytes)": {
        "notice": "Performs a swap"
      },
      "updateAirswapWrapper(address)": {
        "notice": "Update airswapWrapper"
      },
      "updateFeeAddress(address)": {
        "notice": "Update feeAddress"
      },
      "updateOneInchRouter(address)": {
        "notice": "Update oneInchRouter"
      },
      "updateParaswapRouter(address)": {
        "notice": "Update paraswapRouter"
      },
      "updateZeroExRouter(address)": {
        "notice": "Update zeroExRouter"
      }
    },
    "version": 1
  }
}